{
  "_format": "hh-sol-artifact-1",
  "contractName": "DatingV3",
  "sourceName": "contracts/Dating.sol",
  "abi": [
    {
      "inputs": [
        {
          "internalType": "address",
          "name": "_admin",
          "type": "address"
        },
        {
          "internalType": "address",
          "name": "_directory",
          "type": "address"
        },
        {
          "internalType": "address",
          "name": "_oracle",
          "type": "address"
        },
        {
          "internalType": "address",
          "name": "_relayer",
          "type": "address"
        }
      ],
      "stateMutability": "nonpayable",
      "type": "constructor"
    },
    {
      "inputs": [],
      "name": "ECDSAInvalidSignature",
      "type": "error"
    },
    {
      "inputs": [
        {
          "internalType": "uint256",
          "name": "length",
          "type": "uint256"
        }
      ],
      "name": "ECDSAInvalidSignatureLength",
      "type": "error"
    },
    {
      "inputs": [
        {
          "internalType": "bytes32",
          "name": "s",
          "type": "bytes32"
        }
      ],
      "name": "ECDSAInvalidSignatureS",
      "type": "error"
    },
    {
      "inputs": [],
      "name": "InvalidKMSSignatures",
      "type": "error"
    },
    {
      "inputs": [],
      "name": "ZamaProtocolUnsupported",
      "type": "error"
    },
    {
      "anonymous": false,
      "inputs": [
        {
          "indexed": true,
          "internalType": "address",
          "name": "from",
          "type": "address"
        },
        {
          "indexed": true,
          "internalType": "address",
          "name": "to",
          "type": "address"
        }
      ],
      "name": "LikeSent",
      "type": "event"
    },
    {
      "anonymous": false,
      "inputs": [
        {
          "indexed": true,
          "internalType": "address",
          "name": "user",
          "type": "address"
        },
        {
          "indexed": false,
          "internalType": "uint64",
          "name": "nonce",
          "type": "uint64"
        },
        {
          "indexed": false,
          "internalType": "uint8",
          "name": "maxLikes",
          "type": "uint8"
        },
        {
          "indexed": false,
          "internalType": "uint64",
          "name": "expiry",
          "type": "uint64"
        }
      ],
      "name": "LikesAuthorized",
      "type": "event"
    },
    {
      "anonymous": false,
      "inputs": [
        {
          "indexed": true,
          "internalType": "address",
          "name": "user1",
          "type": "address"
        },
        {
          "indexed": true,
          "internalType": "address",
          "name": "user2",
          "type": "address"
        }
      ],
      "name": "MatchCreated",
      "type": "event"
    },
    {
      "anonymous": false,
      "inputs": [
        {
          "indexed": true,
          "internalType": "bytes32",
          "name": "pairKey",
          "type": "bytes32"
        },
        {
          "indexed": false,
          "internalType": "address",
          "name": "user1",
          "type": "address"
        },
        {
          "indexed": false,
          "internalType": "address",
          "name": "user2",
          "type": "address"
        },
        {
          "indexed": false,
          "internalType": "bytes32",
          "name": "handle",
          "type": "bytes32"
        }
      ],
      "name": "MatchPending",
      "type": "event"
    },
    {
      "anonymous": false,
      "inputs": [
        {
          "indexed": true,
          "internalType": "address",
          "name": "user",
          "type": "address"
        }
      ],
      "name": "ProfileSet",
      "type": "event"
    },
    {
      "anonymous": false,
      "inputs": [
        {
          "indexed": false,
          "internalType": "bytes32[]",
          "name": "handlesList",
          "type": "bytes32[]"
        },
        {
          "indexed": false,
          "internalType": "bytes",
          "name": "abiEncodedCleartexts",
          "type": "bytes"
        }
      ],
      "name": "PublicDecryptionVerified",
      "type": "event"
    },
    {
      "anonymous": false,
      "inputs": [
        {
          "indexed": true,
          "internalType": "address",
          "name": "user1",
          "type": "address"
        },
        {
          "indexed": true,
          "internalType": "address",
          "name": "user2",
          "type": "address"
        }
      ],
      "name": "SharedValuesComputed",
      "type": "event"
    },
    {
      "anonymous": false,
      "inputs": [
        {
          "indexed": true,
          "internalType": "address",
          "name": "user",
          "type": "address"
        },
        {
          "indexed": false,
          "internalType": "bytes32",
          "name": "nullifier",
          "type": "bytes32"
        }
      ],
      "name": "VerifiedAttributesSet",
      "type": "event"
    },
    {
      "inputs": [],
      "name": "DOMAIN_SEPARATOR",
      "outputs": [
        {
          "internalType": "bytes32",
          "name": "",
          "type": "bytes32"
        }
      ],
      "stateMutability": "view",
      "type": "function"
    },
    {
      "inputs": [],
      "name": "EIP712_DOMAIN_TYPEHASH",
      "outputs": [
        {
          "internalType": "bytes32",
          "name": "",
          "type": "bytes32"
        }
      ],
      "stateMutability": "view",
      "type": "function"
    },
    {
      "inputs": [],
      "name": "G_MAN",
      "outputs": [
        {
          "internalType": "uint8",
          "name": "",
          "type": "uint8"
        }
      ],
      "stateMutability": "view",
      "type": "function"
    },
    {
      "inputs": [],
      "name": "G_NON_BINARY",
      "outputs": [
        {
          "internalType": "uint8",
          "name": "",
          "type": "uint8"
        }
      ],
      "stateMutability": "view",
      "type": "function"
    },
    {
      "inputs": [],
      "name": "G_TRANS_MAN",
      "outputs": [
        {
          "internalType": "uint8",
          "name": "",
          "type": "uint8"
        }
      ],
      "stateMutability": "view",
      "type": "function"
    },
    {
      "inputs": [],
      "name": "G_TRANS_WOMAN",
      "outputs": [
        {
          "internalType": "uint8",
          "name": "",
          "type": "uint8"
        }
      ],
      "stateMutability": "view",
      "type": "function"
    },
    {
      "inputs": [],
      "name": "G_WOMAN",
      "outputs": [
        {
          "internalType": "uint8",
          "name": "",
          "type": "uint8"
        }
      ],
      "stateMutability": "view",
      "type": "function"
    },
    {
      "inputs": [],
      "name": "LIKE_AUTH_TYPEHASH",
      "outputs": [
        {
          "internalType": "bytes32",
          "name": "",
          "type": "bytes32"
        }
      ],
      "stateMutability": "view",
      "type": "function"
    },
    {
      "inputs": [],
      "name": "MASK_EVERYONE",
      "outputs": [
        {
          "internalType": "uint16",
          "name": "",
          "type": "uint16"
        }
      ],
      "stateMutability": "view",
      "type": "function"
    },
    {
      "inputs": [],
      "name": "UNKNOWN_U8",
      "outputs": [
        {
          "internalType": "uint8",
          "name": "",
          "type": "uint8"
        }
      ],
      "stateMutability": "view",
      "type": "function"
    },
    {
      "inputs": [],
      "name": "admin",
      "outputs": [
        {
          "internalType": "address",
          "name": "",
          "type": "address"
        }
      ],
      "stateMutability": "view",
      "type": "function"
    },
    {
      "inputs": [
        {
          "internalType": "address",
          "name": "user",
          "type": "address"
        },
        {
          "internalType": "bytes32",
          "name": "candidateSetRoot",
          "type": "bytes32"
        },
        {
          "internalType": "uint8",
          "name": "maxLikes",
          "type": "uint8"
        },
        {
          "internalType": "uint64",
          "name": "expiry",
          "type": "uint64"
        },
        {
          "internalType": "uint64",
          "name": "nonce",
          "type": "uint64"
        },
        {
          "internalType": "bytes",
          "name": "signature",
          "type": "bytes"
        }
      ],
      "name": "authorizeLikes",
      "outputs": [],
      "stateMutability": "nonpayable",
      "type": "function"
    },
    {
      "inputs": [],
      "name": "confidentialProtocolId",
      "outputs": [
        {
          "internalType": "uint256",
          "name": "",
          "type": "uint256"
        }
      ],
      "stateMutability": "view",
      "type": "function"
    },
    {
      "inputs": [],
      "name": "directory",
      "outputs": [
        {
          "internalType": "address",
          "name": "",
          "type": "address"
        }
      ],
      "stateMutability": "view",
      "type": "function"
    },
    {
      "inputs": [
        {
          "internalType": "address",
          "name": "user1",
          "type": "address"
        },
        {
          "internalType": "address",
          "name": "user2",
          "type": "address"
        },
        {
          "internalType": "bool",
          "name": "isMutualOk",
          "type": "bool"
        },
        {
          "internalType": "bytes",
          "name": "decryptionProof",
          "type": "bytes"
        }
      ],
      "name": "finalizeMatch",
      "outputs": [],
      "stateMutability": "nonpayable",
      "type": "function"
    },
    {
      "inputs": [
        {
          "internalType": "address",
          "name": "a",
          "type": "address"
        },
        {
          "internalType": "address",
          "name": "b",
          "type": "address"
        }
      ],
      "name": "getPendingMatchHandle",
      "outputs": [
        {
          "internalType": "bytes32",
          "name": "",
          "type": "bytes32"
        }
      ],
      "stateMutability": "view",
      "type": "function"
    },
    {
      "inputs": [
        {
          "internalType": "address",
          "name": "sharer",
          "type": "address"
        }
      ],
      "name": "getSharedBasicsHandles",
      "outputs": [
        {
          "internalType": "bytes32",
          "name": "ageHandle",
          "type": "bytes32"
        },
        {
          "internalType": "bytes32",
          "name": "genderHandle",
          "type": "bytes32"
        }
      ],
      "stateMutability": "view",
      "type": "function"
    },
    {
      "inputs": [
        {
          "internalType": "address",
          "name": "",
          "type": "address"
        },
        {
          "internalType": "address",
          "name": "",
          "type": "address"
        }
      ],
      "name": "hasLiked",
      "outputs": [
        {
          "internalType": "bool",
          "name": "",
          "type": "bool"
        }
      ],
      "stateMutability": "view",
      "type": "function"
    },
    {
      "inputs": [
        {
          "internalType": "address",
          "name": "",
          "type": "address"
        },
        {
          "internalType": "address",
          "name": "",
          "type": "address"
        }
      ],
      "name": "isMatch",
      "outputs": [
        {
          "internalType": "bool",
          "name": "",
          "type": "bool"
        }
      ],
      "stateMutability": "view",
      "type": "function"
    },
    {
      "inputs": [
        {
          "internalType": "address",
          "name": "",
          "type": "address"
        }
      ],
      "name": "isVerified",
      "outputs": [
        {
          "internalType": "bool",
          "name": "",
          "type": "bool"
        }
      ],
      "stateMutability": "view",
      "type": "function"
    },
    {
      "inputs": [
        {
          "internalType": "address",
          "name": "",
          "type": "address"
        },
        {
          "internalType": "uint64",
          "name": "",
          "type": "uint64"
        }
      ],
      "name": "likeAuths",
      "outputs": [
        {
          "internalType": "bytes32",
          "name": "candidateSetRoot",
          "type": "bytes32"
        },
        {
          "internalType": "uint8",
          "name": "maxLikes",
          "type": "uint8"
        },
        {
          "internalType": "uint64",
          "name": "expiry",
          "type": "uint64"
        },
        {
          "internalType": "bool",
          "name": "active",
          "type": "bool"
        }
      ],
      "stateMutability": "view",
      "type": "function"
    },
    {
      "inputs": [
        {
          "internalType": "address",
          "name": "",
          "type": "address"
        },
        {
          "internalType": "uint64",
          "name": "",
          "type": "uint64"
        }
      ],
      "name": "likesUsed",
      "outputs": [
        {
          "internalType": "uint8",
          "name": "",
          "type": "uint8"
        }
      ],
      "stateMutability": "view",
      "type": "function"
    },
    {
      "inputs": [
        {
          "internalType": "address",
          "name": "",
          "type": "address"
        },
        {
          "internalType": "uint64",
          "name": "",
          "type": "uint64"
        }
      ],
      "name": "nonceUsed",
      "outputs": [
        {
          "internalType": "bool",
          "name": "",
          "type": "bool"
        }
      ],
      "stateMutability": "view",
      "type": "function"
    },
    {
      "inputs": [
        {
          "internalType": "bytes32",
          "name": "",
          "type": "bytes32"
        }
      ],
      "name": "nullifierUsed",
      "outputs": [
        {
          "internalType": "bool",
          "name": "",
          "type": "bool"
        }
      ],
      "stateMutability": "view",
      "type": "function"
    },
    {
      "inputs": [],
      "name": "oracle",
      "outputs": [
        {
          "internalType": "address",
          "name": "",
          "type": "address"
        }
      ],
      "stateMutability": "view",
      "type": "function"
    },
    {
      "inputs": [
        {
          "internalType": "address",
          "name": "",
          "type": "address"
        }
      ],
      "name": "profileInitialized",
      "outputs": [
        {
          "internalType": "bool",
          "name": "",
          "type": "bool"
        }
      ],
      "stateMutability": "view",
      "type": "function"
    },
    {
      "inputs": [],
      "name": "relayer",
      "outputs": [
        {
          "internalType": "address",
          "name": "",
          "type": "address"
        }
      ],
      "stateMutability": "view",
      "type": "function"
    },
    {
      "inputs": [
        {
          "internalType": "externalEuint8",
          "name": "claimedAge",
          "type": "bytes32"
        },
        {
          "internalType": "externalEuint8",
          "name": "genderId",
          "type": "bytes32"
        },
        {
          "internalType": "externalEuint16",
          "name": "desiredMask",
          "type": "bytes32"
        },
        {
          "internalType": "externalEbool",
          "name": "shareAge",
          "type": "bytes32"
        },
        {
          "internalType": "externalEbool",
          "name": "shareGender",
          "type": "bytes32"
        },
        {
          "internalType": "bytes",
          "name": "proof",
          "type": "bytes"
        }
      ],
      "name": "setBasics",
      "outputs": [],
      "stateMutability": "nonpayable",
      "type": "function"
    },
    {
      "inputs": [
        {
          "internalType": "address",
          "name": "_directory",
          "type": "address"
        }
      ],
      "name": "setDirectory",
      "outputs": [],
      "stateMutability": "nonpayable",
      "type": "function"
    },
    {
      "inputs": [
        {
          "internalType": "address",
          "name": "_oracle",
          "type": "address"
        }
      ],
      "name": "setOracle",
      "outputs": [],
      "stateMutability": "nonpayable",
      "type": "function"
    },
    {
      "inputs": [
        {
          "internalType": "address",
          "name": "_relayer",
          "type": "address"
        }
      ],
      "name": "setRelayer",
      "outputs": [],
      "stateMutability": "nonpayable",
      "type": "function"
    },
    {
      "inputs": [
        {
          "internalType": "address",
          "name": "user",
          "type": "address"
        },
        {
          "internalType": "externalEuint8",
          "name": "exactAge",
          "type": "bytes32"
        },
        {
          "internalType": "externalEuint8",
          "name": "biologicalSex",
          "type": "bytes32"
        },
        {
          "internalType": "bytes32",
          "name": "nullifier",
          "type": "bytes32"
        },
        {
          "internalType": "bytes",
          "name": "proof",
          "type": "bytes"
        },
        {
          "internalType": "bytes",
          "name": "userSig",
          "type": "bytes"
        }
      ],
      "name": "setVerifiedAttributes",
      "outputs": [],
      "stateMutability": "nonpayable",
      "type": "function"
    },
    {
      "inputs": [
        {
          "internalType": "address",
          "name": "liker",
          "type": "address"
        },
        {
          "internalType": "address",
          "name": "target",
          "type": "address"
        },
        {
          "internalType": "uint64",
          "name": "nonce",
          "type": "uint64"
        },
        {
          "internalType": "bytes32[]",
          "name": "merkleProof",
          "type": "bytes32[]"
        }
      ],
      "name": "submitLike",
      "outputs": [],
      "stateMutability": "nonpayable",
      "type": "function"
    },
    {
      "inputs": [
        {
          "internalType": "address",
          "name": "_newAdmin",
          "type": "address"
        }
      ],
      "name": "transferAdmin",
      "outputs": [],
      "stateMutability": "nonpayable",
      "type": "function"
    }
  ],
  "bytecode": "0x60a0806040523461031a57608081613786803803809161001f828561034d565b83398101031261031a5761003281610370565b9061003f60208201610370565b610057606061005060408501610370565b9301610370565b92610060610384565b504660010361022e57610071610384565b5060405161007e8161031e565b5f81525f60208201525f60408201525b80517f9e7b61f58c47dc699ac88507c4f5bb9f121c03808c5676a8078fe583e464970080546001600160a01b03199081166001600160a01b03938416179091556020808401517f9e7b61f58c47dc699ac88507c4f5bb9f121c03808c5676a8078fe583e4649701805484169185169190911790556040938401517f9e7b61f58c47dc699ac88507c4f5bb9f121c03808c5676a8078fe583e4649702805484169185169190911790555f80548316958416959095179094556001805482169583169590951790945560028054851695821695909517909455600380549093169490931693909317905580517f8b73c3c69bb8fe3d512ecc4cf759cc79239f7b179b0ffacaa9a75d522b39400f9281019283527ec671bc41b32c94adf0f77d04e75dd57682f89c651b241a8f6b2dec07315d2c918101919091527f2a80e1ef1d7842f27f2e6be0972bb708b9a135c38860dbe73c27c3486c34f4de60608201524660808201523060a082810191909152815261020960c08261034d565b5190206080526040516133e390816103a38239608051818181610341015261174f0152f35b4662aa36a70361029d57610240610384565b5060405161024d8161031e565b73f0ffdc93b7e186bc2f8cb3daa75d86d1930a433d81527392c920834ec8941d2c77d188936e1f7a6f49c127602082015273be0e383937d564d7ff0bc3b46c51f0bf8d5c311a604082015261008e565b46617a690361030b576102ae610384565b506040516102bb8161031e565b7350157cffd6bbfa2dece204a89ec419c23ef5755d815273e3a9105a3a932253a70f126eb1e3b589c643dd24602082015273be0e383937d564d7ff0bc3b46c51f0bf8d5c311a604082015261008e565b6373cac13b60e01b5f5260045ffd5b5f80fd5b606081019081106001600160401b0382111761033957604052565b634e487b7160e01b5f52604160045260245ffd5b601f909101601f19168101906001600160401b0382119082101761033957604052565b51906001600160a01b038216820361031a57565b604051906103918261031e565b5f604083828152826020820152015256fe6080806040526004361015610012575f80fd5b5f905f3560e01c9081633644e5151461173a575080633ce3a7861461171f57806359c1d435146111b25780636548e9bc1461116d578063660e07a7146111525780636e91818a1461110d57806375829def146110805780637adbf9731461103b5780637dc0d1d0146110155780637ecf686d14610fe65780637f2e139314610f8d5780638406c07914610f675780638927b03014610f455780639f73b81914610eeb578063a5be919614610e92578063a69bf07d14610e77578063b121c15414610e5c578063b20bf20514610dea578063b3ac185b14610b47578063b6137e8614610aef578063b9209e3314610ab2578063bc63ae1a14610a75578063c41c2f2414610a4f578063c7977be714610a15578063c7fa93bb14610737578063cc1d544314610707578063cc2181b61461060a578063cc262cf1146105ee578063d088297d1461056a578063e0f07edb1461052f578063e2d25494146101f4578063ef0dc32a146101d8578063f754fa4e146101bc5763f851a44014610194575f80fd5b346101b957806003193601126101b9576001600160a01b036020915416604051908152f35b80fd5b50346101b957806003193601126101b957602060405160048152f35b50346101b957806003193601126101b957602060405160018152f35b50346101b95760c03660031901126101b95761020e611772565b60243560443560ff811680910361052b576064359067ffffffffffffffff8216809203610527576084359267ffffffffffffffff84168094036105235760a43567ffffffffffffffff811161051f576102736001600160a01b039136906004016117b5565b919096610285826003541633146117e3565b1695868852601660205260408820865f5260205260ff60405f2054166104da5761039361038a88936103846001600160a01b0394868d52601660205260408d208b5f5260205260405f20600160ff1982541617905560405160208101907f05a8e092880342511839c741541e10c55bbaecbc5afd6deca0b74eb443f1192382528960408201528a60608201528b60808201528c60a082015260a0815261032c60c08261185f565b519020604051602081019161190160f01b83527f0000000000000000000000000000000000000000000000000000000000000000602283015260428201526042815261037960628261185f565b519020923691611919565b90612be9565b90929192612c23565b160361049557604051906080820182811067ffffffffffffffff82111761048157917f63fc1fa3211014e5a28db22943dfded6f757404e7298e597bd9bfacde54c0ab4959391606095936040528152868860ff80600160208601958787526040808201958a87528c83019784895281526014602052208a5f5260205260405f2090518155019451161660ff198454161783555168ffffffffffffffff0083549160081b169068ffffffffffffffff00191617825551151569ff00000000000000000082549160481b169069ff000000000000000000191617905560405192835260208301526040820152a280f35b634e487b7160e01b88526041600452602488fd5b60405162461bcd60e51b815260206004820152601160248201527f496e76616c6964207369676e61747572650000000000000000000000000000006044820152606490fd5b60405162461bcd60e51b815260206004820152601260248201527f4e6f6e636520616c7265616479207573656400000000000000000000000000006044820152606490fd5b8680fd5b8580fd5b8480fd5b8380fd5b50346101b957806003193601126101b95760206040517f05a8e092880342511839c741541e10c55bbaecbc5afd6deca0b74eb443f119238152f35b50346101b95760403660031901126101b95767ffffffffffffffff604061058f611772565b926001600160a01b036105a061179e565b9416815260146020522091165f52602052608060405f2060ff60018254920154604051928352818116602084015267ffffffffffffffff8160081c16604084015260481c1615156060820152f35b50346101b957806003193601126101b957602060405160ff8152f35b50346101b95760403660031901126101b9576040602091610629611772565b610631611788565b906001600160a01b0382166001600160a01b038216105f146106fa576106a461069691925b8551928391888301958690916028926bffffffffffffffffffffffff199060601b1682526bffffffffffffffffffffffff199060601b1660148201520190565b03601f19810183528261185f565b5190208152600f8352206106f1604051916106be8361182f565b604060026001600160a01b03835416928386526001600160a01b03600182015416878701520154930192835215156118cd565b51604051908152f35b610696906106a490610656565b50346101b95760203660031901126101b957604061072b610726611772565b611e31565b82519182526020820152f35b50346109945760c03660031901126109945760a43567ffffffffffffffff8111610994576107699036906004016117b5565b335f52600a60205260ff60405f205416156109de575b61079561078d368385611919565b602435612c83565b335f52600560205260405f20556107ad368284611919565b6001600160a01b035f5160206133b75f395f51905f5254166107f56040519263045fc19560e11b84526044356004850152336024850152608060448501526084840190612140565b602091835f8180946003606483015203925af1908115610989575f91610998575b506001600160a01b037f9e7b61f58c47dc699ac88507c4f5bb9f121c03808c5676a8078fe583e46497005416803b1561099457604051630f8e573b60e21b815260048101839052336024820152905f908290604490829084905af1801561098957610969575b50338452600660205260408420556108c4916108bc916108a86108a0368385611919565b606435612d98565b338652600760205260408620553691611919565b608435612d98565b3382526008602052604082205533815260056020526108e860408220543090612e5e565b33815260066020526108fe306040832054612e5e565b3381526007602052610914306040832054612e5e565b338152600860205261092a306040832054612e5e565b33808252600960205260408220805460ff191660011790557fc6e71e3aee3e0a9e947f36c5d655ee69031cfd09a416c744a4317f82b676e6ba8280a280f35b6108c4939194509161097e5f6108bc9461185f565b5f949193509161087c565b6040513d5f823e3d90fd5b5f80fd5b90506020813d6020116109c2575b816109b36020938361185f565b8101031261099457515f610816565b3d91506109a6565b634e487b7160e01b5f52602160045260245ffd5b6109f46109ec368385611919565b600435612c83565b335f908152600460205260409020819055610a10903090612e5e565b61077f565b34610994575f3660031901126109945760206040517f8b73c3c69bb8fe3d512ecc4cf759cc79239f7b179b0ffacaa9a75d522b39400f8152f35b34610994575f3660031901126109945760206001600160a01b0360015416604051908152f35b34610994576020366003190112610994576001600160a01b03610a96611772565b165f526009602052602060ff60405f2054166040519015158152f35b34610994576020366003190112610994576001600160a01b03610ad3611772565b165f52600a602052602060ff60405f2054166040519015158152f35b3461099457604036600319011261099457610b08611772565b6001600160a01b03610b1861179e565b91165f52601560205267ffffffffffffffff60405f2091165f52602052602060ff60405f205416604051908152f35b346109945760c036600319011261099457610b60611772565b60643560843567ffffffffffffffff811161099457610b839036906004016117b5565b909160a43567ffffffffffffffff811161099457610ba59036906004016117b5565b6001600160a01b03600296929654163303610da557610c4261038a6001600160a01b03926103846040519960208b018688169b8c986bffffffffffffffffffffffff199060601b1682528960348201523060601b605482015260488152610c0d60688261185f565b5190207f19457468657265756d205369676e6564204d6573736167653a0a3332000000005f52601c52603c5f20923691611919565b1603610d6057805f52600b60205260ff60405f205416610d1b57610cc6610cbe7faa4dfee47646d2622b1085382ea4acbf42b9a9ba8e219a533c7d6535caae1c2594602094845f52600b865260405f20600160ff19825416179055610cab61078d368385611919565b885f526004875260405f20553691611919565b604435612c83565b845f52600c835260405f2055835f5260048252610ce73060405f2054612e5e565b835f52600c8252610cfc3060405f2054612e5e565b835f52600a825260405f20600160ff19825416179055604051908152a2005b60405162461bcd60e51b815260206004820152601660248201527f4e756c6c696669657220616c72656164792075736564000000000000000000006044820152606490fd5b60405162461bcd60e51b815260206004820152601660248201527f496e76616c69642075736572207369676e6174757265000000000000000000006044820152606490fd5b60405162461bcd60e51b815260206004820152600b60248201527f4f6e6c79206f7261636c650000000000000000000000000000000000000000006044820152606490fd5b3461099457608036600319011261099457610e03611772565b610e0b611788565b604435918215158303610994576064359267ffffffffffffffff841161099457610e3c610e5a9436906004016117b5565b939092610e556001600160a01b036003541633146117e3565b61195f565b005b34610994575f36600319011261099457602060405160038152f35b34610994575f36600319011261099457602060405160028152f35b3461099457604036600319011261099457610eab611772565b6001600160a01b03610ebb611788565b91165f52600e6020526001600160a01b0360405f2091165f52602052602060ff60405f2054166040519015158152f35b3461099457604036600319011261099457610f04611772565b6001600160a01b03610f1461179e565b91165f52601660205267ffffffffffffffff60405f2091165f52602052602060ff60405f2054166040519015158152f35b34610994575f366003190112610994576020610f5f6120de565b604051908152f35b34610994575f3660031901126109945760206001600160a01b0360035416604051908152f35b3461099457604036600319011261099457610fa6611772565b6001600160a01b03610fb6611788565b91165f52600d6020526001600160a01b0360405f2091165f52602052602060ff60405f2054166040519015158152f35b34610994576020366003190112610994576004355f52600b602052602060ff60405f2054166040519015158152f35b34610994575f3660031901126109945760206001600160a01b0360025416604051908152f35b34610994576020366003190112610994576001600160a01b0361105c611772565b61106a825f54163314611881565b166001600160a01b031960025416176002555f80f35b3461099457602036600319011261099457611099611772565b6001600160a01b035f54916110b18284163314611881565b169081156110c8576001600160a01b031916175f55005b60405162461bcd60e51b815260206004820152600d60248201527f496e76616c69642061646d696e000000000000000000000000000000000000006044820152606490fd5b34610994576020366003190112610994576001600160a01b0361112e611772565b61113c825f54163314611881565b166001600160a01b031960015416176001555f80f35b34610994575f36600319011261099457602060405160078152f35b34610994576020366003190112610994576001600160a01b0361118e611772565b61119c825f54163314611881565b166001600160a01b031960035416176003555f80f35b34610994576080366003190112610994576111cb611772565b6111d3611788565b9060443567ffffffffffffffff81168103610994576064359167ffffffffffffffff831161099457366023840112156109945782600401359367ffffffffffffffff8511610994578460051b93602485820101368111610994576112436001600160a01b036003541633146117e3565b6001600160a01b03841691825f52600960205260ff60405f205416156116da576001600160a01b03841691825f52600960205260ff60405f205416156116955782841461165057835f52600d60205260405f20835f5260205260ff60405f20541661160b57835f52601460205260405f2067ffffffffffffffff88165f5260205260405f20906001820192835460ff8160481c16156115c65767ffffffffffffffff8160081c1642101561158157865f52601560205260405f2067ffffffffffffffff8b165f5260205260ff8060405f2054169116111561153c576020604051818101906bffffffffffffffffffffffff198a60601b1682526014815261134b60348261185f565b51902093549a019a6113606040519c8d61185f565b8b5260240160208b015b82821061152c57505050955f965b89518810156113d75789518810156113c35760208860051b8b010151908181105f146113b2575f52602052600160405f205b970196611378565b905f52602052600160405f206113aa565b634e487b7160e01b5f52603260045260245ffd5b88036114e757835f52601560205260405f2067ffffffffffffffff82165f5260205260405f2060ff81541660ff81146114d357600160ff91011660ff19825416179055835f52601560205267ffffffffffffffff60405f2091165f5260205260ff60405f20541681549060ff821611156114bd575b5050815f52600d60205260405f20815f5260205260405f20600160ff1982541617905580827fa827793dbef3cb574854de5207eaa8b47dfd8f5df5873fcc09a0e15266bfda055f80a35f52600d60205260405f20905f5260205260ff60405f2054166114b457005b610e5a91611f46565b69ff00000000000000000019169055848061144c565b634e487b7160e01b5f52601160045260245ffd5b60405162461bcd60e51b815260206004820152601b60248201527f546172676574206e6f7420696e2063616e6469646174652073657400000000006044820152606490fd5b813581526020918201910161136a565b60405162461bcd60e51b815260206004820152600e60248201527f51756f74612065786365656465640000000000000000000000000000000000006044820152606490fd5b60405162461bcd60e51b815260206004820152601560248201527f417574686f72697a6174696f6e206578706972656400000000000000000000006044820152606490fd5b60405162461bcd60e51b815260206004820152601860248201527f417574686f72697a6174696f6e206e6f742061637469766500000000000000006044820152606490fd5b60405162461bcd60e51b815260206004820152600d60248201527f416c7265616479206c696b6564000000000000000000000000000000000000006044820152606490fd5b60405162461bcd60e51b815260206004820152601060248201527f43616e6e6f74206c696b652073656c66000000000000000000000000000000006044820152606490fd5b60405162461bcd60e51b815260206004820152601660248201527f546172676574206e6f7420696e697469616c697a6564000000000000000000006044820152606490fd5b60405162461bcd60e51b815260206004820152601560248201527f4c696b6572206e6f7420696e697469616c697a656400000000000000000000006044820152606490fd5b34610994575f36600319011261099457602060405160058152f35b34610994575f366003190112610994576020907f00000000000000000000000000000000000000000000000000000000000000008152f35b600435906001600160a01b038216820361099457565b602435906001600160a01b038216820361099457565b6024359067ffffffffffffffff8216820361099457565b9181601f840112156109945782359167ffffffffffffffff8311610994576020838186019501011161099457565b156117ea57565b60405162461bcd60e51b815260206004820152600c60248201527f4f6e6c792072656c6179657200000000000000000000000000000000000000006044820152606490fd5b6060810190811067ffffffffffffffff82111761184b57604052565b634e487b7160e01b5f52604160045260245ffd5b90601f8019910116810190811067ffffffffffffffff82111761184b57604052565b1561188857565b60405162461bcd60e51b815260206004820152600a60248201527f4f6e6c792061646d696e000000000000000000000000000000000000000000006044820152606490fd5b156118d457565b60405162461bcd60e51b815260206004820152601060248201527f4e6f2070656e64696e67206d61746368000000000000000000000000000000006044820152606490fd5b92919267ffffffffffffffff821161184b5760405191611943601f8201601f19166020018461185f565b829481845281830111610994578281602093845f960137010152565b90916001600160a01b038316946001600160a01b0383169486861015611dec57604051606085811b6bffffffffffffffffffffffff19908116602084019081529188901b166034830152906119b78160488101610696565b51902090815f52600f60205260405f2093611a0c604051956119d88761182f565b604060026001600160a01b0383541692838a526001600160a01b0360018201541660208b01520154970196875215156118cd565b604094855192611a1c878561185f565b600184526020840191601f198801368437518451156113c357611a63602092611adc92855f9650528951951598891585880152848752611a5c8b8861185f565b3691611919565b6001600160a01b037f9e7b61f58c47dc699ac88507c4f5bb9f121c03808c5676a8078fe583e464970254169089519485809481936378542ead60e01b835260606004840152611aca611ab8606485018d61210d565b8481036003190160248601528b612140565b83810360031901604485015290612140565b03925af1908115611de2575f91611da7575b5015611d98577fc6366bab028b8d033cb362cfd1f2f3457ef4e92fc738b6788b90d5a7846367a091611b3c611b2e9287519384938985528985019061210d565b908382036020850152612140565b0390a15f52600f6020525f60028382208281558260018201550155611d9157611d40611d4593855f52600e602052825f20875f52602052825f20600160ff19825416179055865f52600e602052825f20865f52602052825f20600160ff1982541617905586611d408588611d40858880516020810190611bf281610696868a8690916028926bffffffffffffffffffffffff199060601b1682526bffffffffffffffffffffffff199060601b1660148201520190565b519020845f526004602052611ce5611c9e611c0f845f2054612628565b8a5f526004602052611c958b611c86611c80611c7a8c611c318b5f2054612628565b9a611c6a8c611c59611c4a611c44612fa8565b8c612834565b91611c53612fa8565b90612834565b935f526007602052825f20546125fd565b955f5260076020525f20546125fd565b9461285d565b9761285d565b96611c8f612fa8565b91612b1b565b94611c8f612fa8565b95805f526005602052611cd08d805f2054908c5f526005602052805f2054935f5260086020525f205490611c8f612fa8565b995f5260086020528c5f205490611c8f612fa8565b9a8b91611cf23085612e5e565b611cfc3088612e5e565b611d06308b612e5e565b611d103084612e5e565b5f9081526010602090815282822085905560118152828220889055601281528282208b9055601390522055612e5e565b612e5e565b81817f1b524b34366f8f7e6e85ad16dee6ad6d3aef8b27b64a6d0f1b489ca2534813235f80a37f400084faa1d1feebd72b5492202d9905c0f245dfb43e76ca408fb6f113188e285f80a3565b5050505050565b63cf6c44e960e01b5f5260045ffd5b90506020813d602011611dda575b81611dc26020938361185f565b8101031261099457518015158103610994575f611aee565b3d9150611db5565b86513d5f823e3d90fd5b60405162461bcd60e51b815260206004820152600b60248201527f57726f6e67206f726465720000000000000000000000000000000000000000006044820152606490fd5b906001600160a01b03821691825f52600e60205260405f206001600160a01b0333165f5260205260ff60405f20541615611f015733831015611ef157916001600160a01b03335b6040516bffffffffffffffffffffffff19606087811b82166020840190815293901b166034820152611ead8160488101610696565b519020931614611ed457815f52601160205260405f2054915f52601360205260405f205490565b815f52601060205260405f2054915f52601260205260405f205490565b916001600160a01b033393611e78565b60405162461bcd60e51b815260206004820152600b60248201527f4e6f74206d6174636865640000000000000000000000000000000000000000006044820152606490fd5b6001600160a01b0382166001600160a01b038216105f146120d7578091805b604051606085811b6bffffffffffffffffffffffff19908116602084019081529184901b1660348301526001600160a01b0391611fa58160488101610696565b519020941690815f52600e60205260405f206001600160a01b0382165f5260205260ff60405f205416611d9157845f52600f6020526001600160a01b0360405f205416611d915761202d83612027866120216060977fb46b9f2f6df4c494cd130d0c2d5eb78ffcef493c59f1673514c6d136d53883bd99612164565b92612164565b906125fd565b906120383083612e5e565b61204d6001600160a01b036003541683612e5e565b6040516120598161182f565b83815260026001600160a01b03602083019316928381526001600160a01b0360408401918683528a5f52600f602052818060405f20965116166001600160a01b031986541617855551166001600160a01b036001850191166001600160a01b03198254161790555191015560405192835260208301526040820152a2565b8181611f65565b466001036120eb57600190565b4662aa36a7036120fb5761271190565b617a694614612108575f90565b5f1990565b90602080835192838152019201905f5b81811061212a5750505090565b825184526020938401939092019160010161211d565b805180835260209291819084018484015e5f828201840152601f01601f1916010190565b906001600160a01b03165f5260056020526001600160a01b0360405f205491165f52600660205260405f2054906121a261219c612ff7565b82613331565b5f5160206133b75f395f51905f5254604051639cd07acb60e01b81526003600482015291906001600160a01b0316826044815f602094600260248401525af1918215610989575f926125c7575b50612204916121fe9084613331565b90612f21565b61221561220f613046565b83613331565b5f5160206133b75f395f51905f5254604051639cd07acb60e01b815260048082015291906001600160a01b0316826044815f602094600260248401525af1918215610989575f92612591575b50612270916121fe9085613331565b5f5160206133b75f395f51905f5254604051639cd07acb60e01b8152600560048201529193906001600160a01b0316826044815f602094600260248401525af1918215610989575f92612559575b50926122ec6122d5836122fe966122f59550613331565b6122dd612fa8565b906122e6613046565b90612b1b565b906122e6612ff7565b906122e6613095565b61232261231261230c612fa8565b83612834565b9161231b613095565b9083612b1b565b5f5160206133b75f395f51905f5254604051639cd07acb60e01b8152600160048201529391906001600160a01b0316846044815f602094600360248401525af1938415610989575f94612525575b50808415612515575b15612501575b60205f9160446001600160a01b035f5160206133b75f395f51905f5254169160405194859384926307227b9160e21b84526004840152600360248401525af18015610989575f906124ce575b6020915060646001600160a01b035f5160206133b75f395f51905f525416955f604051978894859363ccc480a160e01b8552600485015260248401528160448401525af1928315610989575f93612498575b5061243c836120279261245795918115612488575b1561247857612ec5565b6124446130e3565b90801561246a575b811561245a576131ce565b90565b90506124646130e3565b906131ce565b506124736130e3565b61244c565b90506124826130e3565b90612ec5565b90506124926130e3565b90612432565b92506020833d6020116124c6575b816124b36020938361185f565b810103126109945791519161243c61241d565b3d91506124a6565b506020813d6020116124f9575b816124e86020938361185f565b8101031261099457602090516123cb565b3d91506124db565b505f602061250d613095565b91505061237f565b935061251f6130e3565b93612379565b9093506020813d602011612551575b816125416020938361185f565b810103126109945751925f612370565b3d9150612534565b9150926020823d602011612589575b816125756020938361185f565b8101031261099457905190926122ec6122be565b3d9150612568565b91506020823d6020116125bf575b816125ac6020938361185f565b81010312610994579051906121fe612261565b3d915061259f565b91506020823d6020116125f5575b816125e26020938361185f565b81010312610994579051906121fe6121ef565b3d91506125d5565b90612457918015612619575b81612ec55790506124825f613131565b506126235f613131565b612609565b61263061317f565b819081159081612824575b8015612812575b60209060646001600160a01b035f5160206133b75f395f51905f525416955f6040519788948593637210768160e01b8552600485015260248401528160448401525af1928315610989575f936127de575b505f5160206133b75f395f51905f5254604051639cd07acb60e01b815260fe6004820152906001600160a01b0316816044815f602094600260248401525af1908115610989575f916127ac575b5080839261279c575b1561278a575b60209060646001600160a01b035f5160206133b75f395f51905f525416935f60405195869485936385362ee760e01b8552600485015260248401528160448401525af1908115610989575f91612756575b5061274e9061245793612f21565b6122e6612fa8565b90506020813d602011612782575b816127716020938361185f565b810103126109945751612457612740565b3d9150612764565b506020612795613095565b90506126ef565b91506127a6613095565b916126e9565b90506020813d6020116127d6575b816127c76020938361185f565b8101031261099457515f6126e0565b3d91506127ba565b9092506020813d60201161280a575b816127fa6020938361185f565b810103126109945751915f612693565b3d91506127ed565b50602061281d613095565b9050612642565b925061282e613095565b9261263b565b9061245791801561284f575b816131ce579050612464613095565b50612858613095565b612840565b61286561317f565b5f5160206133b75f395f51905f5254604051639cd07acb60e01b815260626004820152906001600160a01b0316816044815f602094600260248401525af1908115610989575f91612ae9575b50808315612ad9575b15612ac7575b60209060646001600160a01b035f5160206133b75f395f51905f525416945f60405196879485936304559f7160e01b8552600485015260248401528160448401525af1918215610989575f92612a93575b50808215612a83575b8115612a71575b60209060646001600160a01b035f5160206133b75f395f51905f525416945f60405196879485936303056db360e31b8552600485015260248401528160448401525af18015610989575f90612a3f575b5f92508015612a2d575b60209060646001600160a01b035f5160206133b75f395f51905f525416916040519586938492635a53accb60e01b8452600484015260056024840152600160f81b60448401525af1918215610989575f926129f7575b506129f1826129ec6129e6826124579661322a565b8061322a565b61322a565b9061322a565b91506020823d602011612a25575b81612a126020938361185f565b81010312610994579051906129f16129d1565b3d9150612a05565b506020612a38613095565b905061297b565b506020823d602011612a69575b81612a596020938361185f565b81010312610994575f9151612971565b3d9150612a4c565b506020612a7c613095565b9050612921565b9150612a8d613095565b9161291a565b9091506020813d602011612abf575b81612aaf6020938361185f565b810103126109945751905f612911565b3d9150612aa2565b506020612ad2613095565b90506128c0565b9250612ae3613095565b926128ba565b90506020813d602011612b13575b81612b046020938361185f565b8101031261099457515f6128b1565b3d9150612af7565b91908215612bd8575b8015612bca575b8115612bb4575b6064602092935f6001600160a01b035f5160206133b75f395f51905f5254166040519687958694637702dcff60e01b86526004860152602485015260448401525af1908115610989575f91612b85575090565b90506020813d602011612bac575b81612ba06020938361185f565b81010312610994575190565b3d9150612b93565b602091506064612bc2613095565b925050612b32565b50612bd3613095565b612b2b565b9150612be35f613131565b91612b24565b8151919060418303612c1957612c129250602082015190606060408401519301515f1a906132af565b9192909190565b50505f9160029190565b60048110156109ca5780612c35575050565b60018103612c4c5763f645eedf60e01b5f5260045ffd5b60028103612c67575063fce698f760e01b5f5260045260245ffd5b600314612c715750565b6335e2f38360e21b5f5260045260245ffd5b9190612cc25f5160206133b75f395f51905f5254916040519463045fc19560e11b86526004860152336024860152608060448601526084850190612140565b602091845f6001600160a01b03828095600260648301520393165af1918215610989575f92612d64575b50816001600160a01b037f9e7b61f58c47dc699ac88507c4f5bb9f121c03808c5676a8078fe583e46497005416803b1561099457604051630f8e573b60e21b815260048101929092523360248301525f908290818381604481015b03925af1801561098957612d585750565b5f612d629161185f565b565b9091506020813d602011612d90575b81612d806020938361185f565b810103126109945751905f612cec565b3d9150612d73565b9190612de06001600160a01b035f5160206133b75f395f51905f525416916040519463045fc19560e11b86526004860152336024860152608060448601526084850190612140565b602091845f81809482606483015203925af1918215610989575f92612d645750816001600160a01b037f9e7b61f58c47dc699ac88507c4f5bb9f121c03808c5676a8078fe583e46497005416803b1561099457604051630f8e573b60e21b815260048101929092523360248301525f90829081838160448101612d47565b6001600160a01b037f9e7b61f58c47dc699ac88507c4f5bb9f121c03808c5676a8078fe583e4649700541691823b1561099457604051635ca4b5b160e11b815260048101929092526001600160a01b03166024820152905f90829081838160448101612d47565b5f5160206133b75f395f51905f525460405163d99882d560e01b8152600481019290925260248201929092525f604482018190529091602091839160649183916001600160a01b03165af1908115610989575f91612b85575090565b908115612f97575b8015612f84575b60209060646001600160a01b035f5160206133b75f395f51905f525416935f60405195869485936363a2db2960e01b8552600485015260248401528160448401525af1908115610989575f91612b85575090565b506020612f905f613131565b9050612f30565b9050612fa25f613131565b90612f29565b5f5160206133b75f395f51905f5254604051639cd07acb60e01b815260ff6004820152906001600160a01b0316816044815f602094600260248401525af1908115610989575f91612b85575090565b5f5160206133b75f395f51905f5254604051639cd07acb60e01b815260016004820152906001600160a01b0316816044815f602094600260248401525af1908115610989575f91612b85575090565b5f5160206133b75f395f51905f5254604051639cd07acb60e01b815260026004820152906001600160a01b0316816044815f602094600260248401525af1908115610989575f91612b85575090565b5f5160206133b75f395f51905f5254604051639cd07acb60e01b81525f6004820152906001600160a01b0316816044815f602094600260248401525af1908115610989575f91612b85575090565b5f5160206133b75f395f51905f5254604051639cd07acb60e01b81525f6004820152906001600160a01b0316816044815f602094600360248401525af1908115610989575f91612b85575090565b5f5160206133b75f395f51905f5254604051639cd07acb60e01b815260048101929092526001600160a01b0316816044815f6020948160248401525af1908115610989575f91612b85575090565b5f5160206133b75f395f51905f5254604051639cd07acb60e01b815260126004820152906001600160a01b0316816044815f602094600260248401525af1908115610989575f91612b85575090565b5f5160206133b75f395f51905f52546040516336024b2f60e21b8152600481019290925260248201929092525f604482018190529091602091839160649183916001600160a01b03165af1908115610989575f91612b85575090565b90811561329f575b801561328d575b60209060646001600160a01b035f5160206133b75f395f51905f525416935f604051958694859363022f65e760e31b8552600485015260248401528160448401525af1908115610989575f91612b85575090565b506020613298613095565b9050613239565b90506132a9613095565b90613232565b91907f7fffffffffffffffffffffffffffffff5d576e7357a4501ddfe92f46681b20a08411613326579160209360809260ff5f9560405194855216868401526040830152606082015282805260015afa15610989575f516001600160a01b0381161561331c57905f905f90565b505f906001905f90565b5050505f9160039190565b9081156133a6575b8015613394575b60209060646001600160a01b035f5160206133b75f395f51905f525416935f604051958694859363f77f3f1d60e01b8552600485015260248401528160448401525af1908115610989575f91612b85575090565b50602061339f613095565b9050613340565b90506133b0613095565b9061333956fe9e7b61f58c47dc699ac88507c4f5bb9f121c03808c5676a8078fe583e4649701a164736f6c634300081b000a",
  "linkReferences": {},
  "deployedLinkReferences": {}
}