{
  "_format": "hh-sol-artifact-1",
  "contractName": "DirectoryV2",
  "sourceName": "contracts/Directory.sol",
  "abi": [
    {
      "inputs": [
        {
          "internalType": "address",
          "name": "_admin",
          "type": "address"
        },
        {
          "internalType": "address",
          "name": "_attestor",
          "type": "address"
        }
      ],
      "stateMutability": "nonpayable",
      "type": "constructor"
    },
    {
      "anonymous": false,
      "inputs": [
        {
          "indexed": true,
          "internalType": "address",
          "name": "user",
          "type": "address"
        },
        {
          "indexed": false,
          "internalType": "uint8",
          "name": "ageBucket",
          "type": "uint8"
        },
        {
          "indexed": false,
          "internalType": "uint8",
          "name": "verifiedLevel",
          "type": "uint8"
        }
      ],
      "name": "ProfileAttested",
      "type": "event"
    },
    {
      "anonymous": false,
      "inputs": [
        {
          "indexed": true,
          "internalType": "address",
          "name": "user",
          "type": "address"
        },
        {
          "indexed": false,
          "internalType": "uint32",
          "name": "timestamp",
          "type": "uint32"
        }
      ],
      "name": "ProfileUpdated",
      "type": "event"
    },
    {
      "inputs": [],
      "name": "admin",
      "outputs": [
        {
          "internalType": "address",
          "name": "",
          "type": "address"
        }
      ],
      "stateMutability": "view",
      "type": "function"
    },
    {
      "inputs": [
        {
          "internalType": "address",
          "name": "_user",
          "type": "address"
        },
        {
          "internalType": "uint8",
          "name": "_ageBucket",
          "type": "uint8"
        },
        {
          "internalType": "uint8",
          "name": "_verifiedLevel",
          "type": "uint8"
        }
      ],
      "name": "attestProfile",
      "outputs": [],
      "stateMutability": "nonpayable",
      "type": "function"
    },
    {
      "inputs": [],
      "name": "attestor",
      "outputs": [
        {
          "internalType": "address",
          "name": "",
          "type": "address"
        }
      ],
      "stateMutability": "view",
      "type": "function"
    },
    {
      "inputs": [
        {
          "internalType": "address",
          "name": "_user",
          "type": "address"
        }
      ],
      "name": "createProfile",
      "outputs": [],
      "stateMutability": "nonpayable",
      "type": "function"
    },
    {
      "inputs": [
        {
          "internalType": "address",
          "name": "_user",
          "type": "address"
        }
      ],
      "name": "getProfile",
      "outputs": [
        {
          "components": [
            {
              "internalType": "bytes32",
              "name": "animeCid",
              "type": "bytes32"
            },
            {
              "internalType": "bytes32",
              "name": "encPhotoCid",
              "type": "bytes32"
            },
            {
              "internalType": "uint8",
              "name": "ageBucket",
              "type": "uint8"
            },
            {
              "internalType": "uint8",
              "name": "verifiedLevel",
              "type": "uint8"
            },
            {
              "internalType": "uint8",
              "name": "claimedAgeBucket",
              "type": "uint8"
            },
            {
              "internalType": "uint8",
              "name": "genderIdentity",
              "type": "uint8"
            },
            {
              "internalType": "uint32",
              "name": "updatedAt",
              "type": "uint32"
            },
            {
              "internalType": "uint8",
              "name": "modelVersion",
              "type": "uint8"
            },
            {
              "internalType": "bool",
              "name": "exists",
              "type": "bool"
            }
          ],
          "internalType": "struct DirectoryV2.Profile",
          "name": "",
          "type": "tuple"
        }
      ],
      "stateMutability": "view",
      "type": "function"
    },
    {
      "inputs": [
        {
          "internalType": "uint256",
          "name": "_index",
          "type": "uint256"
        }
      ],
      "name": "getProfileAddress",
      "outputs": [
        {
          "internalType": "address",
          "name": "",
          "type": "address"
        }
      ],
      "stateMutability": "view",
      "type": "function"
    },
    {
      "inputs": [],
      "name": "getProfileCount",
      "outputs": [
        {
          "internalType": "uint256",
          "name": "",
          "type": "uint256"
        }
      ],
      "stateMutability": "view",
      "type": "function"
    },
    {
      "inputs": [
        {
          "internalType": "address",
          "name": "_user",
          "type": "address"
        }
      ],
      "name": "isVerified",
      "outputs": [
        {
          "internalType": "bool",
          "name": "",
          "type": "bool"
        }
      ],
      "stateMutability": "view",
      "type": "function"
    },
    {
      "inputs": [
        {
          "internalType": "uint256",
          "name": "",
          "type": "uint256"
        }
      ],
      "name": "profileList",
      "outputs": [
        {
          "internalType": "address",
          "name": "",
          "type": "address"
        }
      ],
      "stateMutability": "view",
      "type": "function"
    },
    {
      "inputs": [
        {
          "internalType": "address",
          "name": "",
          "type": "address"
        }
      ],
      "name": "profiles",
      "outputs": [
        {
          "internalType": "bytes32",
          "name": "animeCid",
          "type": "bytes32"
        },
        {
          "internalType": "bytes32",
          "name": "encPhotoCid",
          "type": "bytes32"
        },
        {
          "internalType": "uint8",
          "name": "ageBucket",
          "type": "uint8"
        },
        {
          "internalType": "uint8",
          "name": "verifiedLevel",
          "type": "uint8"
        },
        {
          "internalType": "uint8",
          "name": "claimedAgeBucket",
          "type": "uint8"
        },
        {
          "internalType": "uint8",
          "name": "genderIdentity",
          "type": "uint8"
        },
        {
          "internalType": "uint32",
          "name": "updatedAt",
          "type": "uint32"
        },
        {
          "internalType": "uint8",
          "name": "modelVersion",
          "type": "uint8"
        },
        {
          "internalType": "bool",
          "name": "exists",
          "type": "bool"
        }
      ],
      "stateMutability": "view",
      "type": "function"
    },
    {
      "inputs": [
        {
          "internalType": "bytes32",
          "name": "_animeCid",
          "type": "bytes32"
        },
        {
          "internalType": "bytes32",
          "name": "_encPhotoCid",
          "type": "bytes32"
        },
        {
          "internalType": "uint8",
          "name": "_claimedAgeBucket",
          "type": "uint8"
        },
        {
          "internalType": "uint8",
          "name": "_genderIdentityPublic",
          "type": "uint8"
        },
        {
          "internalType": "uint8",
          "name": "_modelVersion",
          "type": "uint8"
        }
      ],
      "name": "registerOrUpdateProfile",
      "outputs": [],
      "stateMutability": "nonpayable",
      "type": "function"
    },
    {
      "inputs": [
        {
          "internalType": "address",
          "name": "_attestor",
          "type": "address"
        }
      ],
      "name": "setAttestor",
      "outputs": [],
      "stateMutability": "nonpayable",
      "type": "function"
    },
    {
      "inputs": [
        {
          "internalType": "address",
          "name": "_newAdmin",
          "type": "address"
        }
      ],
      "name": "transferAdmin",
      "outputs": [],
      "stateMutability": "nonpayable",
      "type": "function"
    }
  ],
  "bytecode": "0x608034608657601f610c6538819003918201601f19168301916001600160401b03831184841017608a578084926040948552833981010312608657604b6020604583609e565b9201609e565b600280546001600160a01b039384166001600160a01b03199182161790915560038054929093169116179055604051610bb390816100b28239f35b5f80fd5b634e487b7160e01b5f52604160045260245ffd5b51906001600160a01b038216820360865756fe60806040526004361015610011575f80fd5b5f3560e01c806306f57222146109e35780630f53a4701461089e5780633697611a1461088157806375829def146107e557806396cab5361461062f578063b9209e33146105ed578063bbe1562714610552578063cada25c21461052c578063db8ce08c146104a6578063f4dc722e14610301578063f536c52014610125578063f5770b1f146100d25763f851a440146100a8575f80fd5b346100ce575f3660031901126100ce5760206001600160a01b0360025416604051908152f35b5f80fd5b346100ce5760203660031901126100ce576001600160a01b036100f3610a3c565b61010282600254163314610a97565b1673ffffffffffffffffffffffffffffffffffffffff1960035416176003555f80f35b346100ce5760203660031901126100ce5761013e610a3c565b6101546001600160a01b03600354163314610b5a565b6001600160a01b03811690815f525f60205260ff600260405f20015460481c166102bc5760207f825d0cbe0ea863e4f9bbff7ddd851d3185834c57d355e15ecae962e7be680590916102b363ffffffff4216916101af610a62565b5f815283878683015f815260408401935f8552606081015f815261023760ff60808401925f84528180600260a08801975f895260c081019b8c5260e081019960018b5261010082019b60018d525f5260205f905260405f2091518255516001820155019a51161682198a54161789555116879061ff0082549160081b169061ff001916179055565b519369ff00000000000000000068ff000000000000000067ffffffff0000000063ff0000008954955160181b1693518d1b16945160401b169451151560481b169469ff000000000000000000199262ff000068ff0000000000000000199260101b169067ffffffffffff00001916171617161717179055610ae3565b604051908152a2005b60405162461bcd60e51b815260206004820152601660248201527f50726f66696c6520616c726561647920657869737473000000000000000000006044820152606490fd5b346100ce5760603660031901126100ce5761031a610a3c565b60243560ff81168091036100ce576001600160a01b03610338610a52565b9261034882600354163314610b5a565b1691825f525f60205260ff600260405f20015460481c161561046157811561041c5760ff81169182156103d7575f8481526020819052604090819020600201805461ff0019841661ffff199091161760089490941b61ff0016939093179092557f646a61cd130fc07b2c9058f91187d0e4843fd32f1beee52e7000073ba364516c9282519182526020820152a2005b60405162461bcd60e51b815260206004820152601660248201527f496e76616c6964207665726966696564206c6576656c000000000000000000006044820152606490fd5b60405162461bcd60e51b815260206004820152601260248201527f496e76616c696420616765206275636b657400000000000000000000000000006044820152606490fd5b60405162461bcd60e51b815260206004820152601660248201527f50726f66696c6520646f6573206e6f74206578697374000000000000000000006044820152606490fd5b346100ce5760203660031901126100ce576004356001548110156104e7576001600160a01b036104d7602092610a10565b90549060031b1c16604051908152f35b60405162461bcd60e51b815260206004820152601360248201527f496e646578206f7574206f6620626f756e6473000000000000000000000000006044820152606490fd5b346100ce575f3660031901126100ce5760206001600160a01b0360035416604051908152f35b346100ce5760203660031901126100ce576001600160a01b03610573610a3c565b165f525f60205261012060405f2060ff815491600260018201549101549060405193845260208401528181166040840152818160081c166060840152818160101c166080840152818160181c1660a084015263ffffffff8160201c1660c0840152818160401c1660e084015260481c161515610100820152f35b346100ce5760203660031901126100ce576001600160a01b0361060e610a3c565b165f525f602052602060ff600260405f20015460081c161515604051908152f35b346100ce5760a03660031901126100ce57610648610a52565b6064359060ff82168092036100ce5760843560ff81168091036100ce57335f9081526020819052604090206002015463ffffffff42169360ff604883901c8116159481841694879460081c831693909290919061072c906106a7610a62565b9560043587528180600260208a01996024358b52604081019c8d526060810194855282608082019816885260a0810198895260c081019b8c5260e08101998a5261010081019a60018c52335f525f60205260405f2091518255516001820155019a51161682198a54161789555116879061ff0082549160081b169061ff001916179055565b519369ff00000000000000000068ff000000000000000067ffffffff0000000063ff0000008954955160181b16935160201b16945160401b169451151560481b169469ff000000000000000000199262ff000068ff0000000000000000199260101b169067ffffffffffff000019161716171617171790556107d7575b6040519081527f825d0cbe0ea863e4f9bbff7ddd851d3185834c57d355e15ecae962e7be68059060203392a2005b6107e033610ae3565b6107a9565b346100ce5760203660031901126100ce576107fe610a3c565b6001600160a01b03600254916108178284163314610a97565b1690811561083c5773ffffffffffffffffffffffffffffffffffffffff191617600255005b60405162461bcd60e51b815260206004820152600d60248201527f496e76616c69642061646d696e000000000000000000000000000000000000006044820152606490fd5b346100ce575f3660031901126100ce576020600154604051908152f35b346100ce5760203660031901126100ce576108b7610a3c565b6108bf610a62565b5f8152602081015f9052604081015f9052606081015f9052608081015f905260a081015f905260c081015f905260e081015f9052610100015f90526001600160a01b03165f525f60205260405f20610915610a62565b908054918281526001820154916020820192835260020154916040820160ff84168152606083018460081c60ff16815260808401908560101c60ff16825260a08501928660181c60ff16845260c08601948760201c63ffffffff16865260e08701968860401c60ff168852610100019760481c60ff16151588526040519889525160208901525160ff1660408801525160ff1660608701525160ff1660808601525160ff1660a08501525163ffffffff1660c08401525160ff1660e083015251151561010082015261012090f35b346100ce5760203660031901126100ce576004356001548110156100ce576001600160a01b036104d76020925b600154811015610a285760015f5260205f2001905f90565b634e487b7160e01b5f52603260045260245ffd5b600435906001600160a01b03821682036100ce57565b6044359060ff821682036100ce57565b60405190610120820182811067ffffffffffffffff821117610a8357604052565b634e487b7160e01b5f52604160045260245ffd5b15610a9e57565b60405162461bcd60e51b815260206004820152600a60248201527f4f6e6c792061646d696e000000000000000000000000000000000000000000006044820152606490fd5b60015468010000000000000000811015610a835760018101600155600154811015610a285760015f527fb10e2d527612073b26eecdfd717e6a320cf44b4afac2b0732d9fcbe2b7fa0cf601805473ffffffffffffffffffffffffffffffffffffffff19166001600160a01b03909216919091179055565b15610b6157565b60405162461bcd60e51b815260206004820152600d60248201527f4f6e6c79206174746573746f72000000000000000000000000000000000000006044820152606490fdfea164736f6c634300081b000a",
  "linkReferences": {},
  "deployedLinkReferences": {}
}